{
  "_format": "hh-sol-artifact-1",
  "contractName": "ProposalManager",
  "sourceName": "contracts/ProposalManager.sol",
  "abi": [
    {
      "inputs": [],
      "stateMutability": "nonpayable",
      "type": "constructor"
    },
    {
      "inputs": [
        {
          "internalType": "address",
          "name": "owner",
          "type": "address"
        }
      ],
      "name": "OwnableInvalidOwner",
      "type": "error"
    },
    {
      "inputs": [
        {
          "internalType": "address",
          "name": "account",
          "type": "address"
        }
      ],
      "name": "OwnableUnauthorizedAccount",
      "type": "error"
    },
    {
      "inputs": [],
      "name": "ReentrancyGuardReentrantCall",
      "type": "error"
    },
    {
      "anonymous": false,
      "inputs": [
        {
          "indexed": true,
          "internalType": "uint256",
          "name": "proposalId",
          "type": "uint256"
        },
        {
          "indexed": true,
          "internalType": "address",
          "name": "donor",
          "type": "address"
        },
        {
          "indexed": false,
          "internalType": "uint256",
          "name": "amount",
          "type": "uint256"
        }
      ],
      "name": "DonationMade",
      "type": "event"
    },
    {
      "anonymous": false,
      "inputs": [
        {
          "indexed": true,
          "internalType": "uint256",
          "name": "proposalId",
          "type": "uint256"
        },
        {
          "indexed": true,
          "internalType": "address",
          "name": "recipient",
          "type": "address"
        },
        {
          "indexed": false,
          "internalType": "uint256",
          "name": "amount",
          "type": "uint256"
        }
      ],
      "name": "FundsDistributed",
      "type": "event"
    },
    {
      "anonymous": false,
      "inputs": [
        {
          "indexed": true,
          "internalType": "address",
          "name": "previousOwner",
          "type": "address"
        },
        {
          "indexed": true,
          "internalType": "address",
          "name": "newOwner",
          "type": "address"
        }
      ],
      "name": "OwnershipTransferred",
      "type": "event"
    },
    {
      "anonymous": false,
      "inputs": [
        {
          "indexed": true,
          "internalType": "uint256",
          "name": "proposalId",
          "type": "uint256"
        },
        {
          "indexed": true,
          "internalType": "address",
          "name": "creator",
          "type": "address"
        }
      ],
      "name": "ProposalCreated",
      "type": "event"
    },
    {
      "anonymous": false,
      "inputs": [
        {
          "indexed": true,
          "internalType": "uint256",
          "name": "proposalId",
          "type": "uint256"
        },
        {
          "indexed": false,
          "internalType": "enum ProposalManager.ProposalStatus",
          "name": "status",
          "type": "uint8"
        }
      ],
      "name": "ProposalStatusChanged",
      "type": "event"
    },
    {
      "anonymous": false,
      "inputs": [
        {
          "indexed": true,
          "internalType": "uint256",
          "name": "proposalId",
          "type": "uint256"
        },
        {
          "indexed": true,
          "internalType": "address",
          "name": "voter",
          "type": "address"
        },
        {
          "indexed": false,
          "internalType": "bool",
          "name": "approved",
          "type": "bool"
        }
      ],
      "name": "VoteCast",
      "type": "event"
    },
    {
      "inputs": [],
      "name": "MIN_DONATION",
      "outputs": [
        {
          "internalType": "uint256",
          "name": "",
          "type": "uint256"
        }
      ],
      "stateMutability": "view",
      "type": "function"
    },
    {
      "inputs": [],
      "name": "VOTING_DURATION",
      "outputs": [
        {
          "internalType": "uint256",
          "name": "",
          "type": "uint256"
        }
      ],
      "stateMutability": "view",
      "type": "function"
    },
    {
      "inputs": [
        {
          "internalType": "uint256",
          "name": "proposalId",
          "type": "uint256"
        }
      ],
      "name": "completeProposal",
      "outputs": [],
      "stateMutability": "nonpayable",
      "type": "function"
    },
    {
      "inputs": [
        {
          "internalType": "string",
          "name": "name",
          "type": "string"
        },
        {
          "internalType": "string",
          "name": "content",
          "type": "string"
        },
        {
          "internalType": "enum ProposalManager.BurnOption",
          "name": "burnOption",
          "type": "uint8"
        },
        {
          "internalType": "address",
          "name": "burnAddress",
          "type": "address"
        },
        {
          "internalType": "string[]",
          "name": "deliverables",
          "type": "string[]"
        }
      ],
      "name": "createProposal",
      "outputs": [
        {
          "internalType": "uint256",
          "name": "",
          "type": "uint256"
        }
      ],
      "stateMutability": "nonpayable",
      "type": "function"
    },
    {
      "inputs": [
        {
          "internalType": "uint256",
          "name": "proposalId",
          "type": "uint256"
        }
      ],
      "name": "distributeByAdmin",
      "outputs": [],
      "stateMutability": "nonpayable",
      "type": "function"
    },
    {
      "inputs": [
        {
          "internalType": "uint256",
          "name": "proposalId",
          "type": "uint256"
        }
      ],
      "name": "donateToProposal",
      "outputs": [],
      "stateMutability": "payable",
      "type": "function"
    },
    {
      "inputs": [
        {
          "internalType": "uint256",
          "name": "",
          "type": "uint256"
        },
        {
          "internalType": "address",
          "name": "",
          "type": "address"
        }
      ],
      "name": "donations",
      "outputs": [
        {
          "internalType": "address",
          "name": "donor",
          "type": "address"
        },
        {
          "internalType": "uint256",
          "name": "amount",
          "type": "uint256"
        },
        {
          "internalType": "bool",
          "name": "hasVoted",
          "type": "bool"
        },
        {
          "internalType": "bool",
          "name": "vote",
          "type": "bool"
        }
      ],
      "stateMutability": "view",
      "type": "function"
    },
    {
      "inputs": [
        {
          "internalType": "uint256",
          "name": "proposalId",
          "type": "uint256"
        },
        {
          "internalType": "address",
          "name": "donor",
          "type": "address"
        }
      ],
      "name": "getDonation",
      "outputs": [
        {
          "components": [
            {
              "internalType": "address",
              "name": "donor",
              "type": "address"
            },
            {
              "internalType": "uint256",
              "name": "amount",
              "type": "uint256"
            },
            {
              "internalType": "bool",
              "name": "hasVoted",
              "type": "bool"
            },
            {
              "internalType": "bool",
              "name": "vote",
              "type": "bool"
            }
          ],
          "internalType": "struct ProposalManager.Donation",
          "name": "",
          "type": "tuple"
        }
      ],
      "stateMutability": "view",
      "type": "function"
    },
    {
      "inputs": [
        {
          "internalType": "uint256",
          "name": "proposalId",
          "type": "uint256"
        }
      ],
      "name": "getProposal",
      "outputs": [
        {
          "components": [
            {
              "internalType": "uint256",
              "name": "id",
              "type": "uint256"
            },
            {
              "internalType": "string",
              "name": "name",
              "type": "string"
            },
            {
              "internalType": "string",
              "name": "content",
              "type": "string"
            },
            {
              "internalType": "address",
              "name": "creator",
              "type": "address"
            },
            {
              "internalType": "enum ProposalManager.BurnOption",
              "name": "burnOption",
              "type": "uint8"
            },
            {
              "internalType": "address",
              "name": "burnAddress",
              "type": "address"
            },
            {
              "internalType": "enum ProposalManager.ProposalStatus",
              "name": "status",
              "type": "uint8"
            },
            {
              "internalType": "uint256",
              "name": "totalDonations",
              "type": "uint256"
            },
            {
              "internalType": "uint256",
              "name": "createdAt",
              "type": "uint256"
            },
            {
              "internalType": "uint256",
              "name": "updatedAt",
              "type": "uint256"
            },
            {
              "internalType": "string[]",
              "name": "deliverables",
              "type": "string[]"
            },
            {
              "internalType": "bool",
              "name": "isCreatorVoted",
              "type": "bool"
            },
            {
              "internalType": "uint256",
              "name": "donorApprovalCount",
              "type": "uint256"
            },
            {
              "internalType": "uint256",
              "name": "donorRejectionCount",
              "type": "uint256"
            }
          ],
          "internalType": "struct ProposalManager.Proposal",
          "name": "",
          "type": "tuple"
        }
      ],
      "stateMutability": "view",
      "type": "function"
    },
    {
      "inputs": [],
      "name": "getProposalCount",
      "outputs": [
        {
          "internalType": "uint256",
          "name": "",
          "type": "uint256"
        }
      ],
      "stateMutability": "view",
      "type": "function"
    },
    {
      "inputs": [
        {
          "internalType": "uint256",
          "name": "proposalId",
          "type": "uint256"
        }
      ],
      "name": "getProposalDonors",
      "outputs": [
        {
          "internalType": "address[]",
          "name": "",
          "type": "address[]"
        }
      ],
      "stateMutability": "view",
      "type": "function"
    },
    {
      "inputs": [],
      "name": "owner",
      "outputs": [
        {
          "internalType": "address",
          "name": "",
          "type": "address"
        }
      ],
      "stateMutability": "view",
      "type": "function"
    },
    {
      "inputs": [
        {
          "internalType": "uint256",
          "name": "",
          "type": "uint256"
        },
        {
          "internalType": "uint256",
          "name": "",
          "type": "uint256"
        }
      ],
      "name": "proposalDonors",
      "outputs": [
        {
          "internalType": "address",
          "name": "",
          "type": "address"
        }
      ],
      "stateMutability": "view",
      "type": "function"
    },
    {
      "inputs": [
        {
          "internalType": "uint256",
          "name": "",
          "type": "uint256"
        }
      ],
      "name": "proposals",
      "outputs": [
        {
          "internalType": "uint256",
          "name": "id",
          "type": "uint256"
        },
        {
          "internalType": "string",
          "name": "name",
          "type": "string"
        },
        {
          "internalType": "string",
          "name": "content",
          "type": "string"
        },
        {
          "internalType": "address",
          "name": "creator",
          "type": "address"
        },
        {
          "internalType": "enum ProposalManager.BurnOption",
          "name": "burnOption",
          "type": "uint8"
        },
        {
          "internalType": "address",
          "name": "burnAddress",
          "type": "address"
        },
        {
          "internalType": "enum ProposalManager.ProposalStatus",
          "name": "status",
          "type": "uint8"
        },
        {
          "internalType": "uint256",
          "name": "totalDonations",
          "type": "uint256"
        },
        {
          "internalType": "uint256",
          "name": "createdAt",
          "type": "uint256"
        },
        {
          "internalType": "uint256",
          "name": "updatedAt",
          "type": "uint256"
        },
        {
          "internalType": "bool",
          "name": "isCreatorVoted",
          "type": "bool"
        },
        {
          "internalType": "uint256",
          "name": "donorApprovalCount",
          "type": "uint256"
        },
        {
          "internalType": "uint256",
          "name": "donorRejectionCount",
          "type": "uint256"
        }
      ],
      "stateMutability": "view",
      "type": "function"
    },
    {
      "inputs": [],
      "name": "renounceOwnership",
      "outputs": [],
      "stateMutability": "nonpayable",
      "type": "function"
    },
    {
      "inputs": [
        {
          "internalType": "address",
          "name": "newOwner",
          "type": "address"
        }
      ],
      "name": "transferOwnership",
      "outputs": [],
      "stateMutability": "nonpayable",
      "type": "function"
    },
    {
      "inputs": [
        {
          "internalType": "uint256",
          "name": "proposalId",
          "type": "uint256"
        },
        {
          "internalType": "bool",
          "name": "approve",
          "type": "bool"
        }
      ],
      "name": "voteByCreator",
      "outputs": [],
      "stateMutability": "nonpayable",
      "type": "function"
    },
    {
      "inputs": [
        {
          "internalType": "uint256",
          "name": "proposalId",
          "type": "uint256"
        },
        {
          "internalType": "bool",
          "name": "approve",
          "type": "bool"
        }
      ],
      "name": "voteByDonor",
      "outputs": [],
      "stateMutability": "nonpayable",
      "type": "function"
    },
    {
      "stateMutability": "payable",
      "type": "receive"
    }
  ],
  "bytecode": "0x608060405234801561001057600080fd5b50338061003757604051631e4fbdf760e01b81526000600482015260240160405180910390fd5b6100408161004a565b506001805561009a565b600080546001600160a01b038381166001600160a01b0319831681178455604051919092169283917f8be0079c531659141344cd1fd0a4f28419497f9722a3daafe3b4186f6b6457e09190a35050565b612317806100a96000396000f3fe60806040526004361061010d5760003560e01c8063c2bacfa811610095578063db45810e11610064578063db45810e1461032b578063ec8c8d3214610346578063ee1554a314610366578063f2fde38b146103f5578063f4cd78b01461041557600080fd5b8063c2bacfa814610251578063c7f758a8146102b1578063cde69bac146102de578063cdf2e617146102fe57600080fd5b8063715018a6116100dc578063715018a6146101be57806380146c27146101d35780638da5cb5b146101f3578063a438d20814610225578063c08cc02d1461023c57600080fd5b8063013cf08b146101195780632717cbc71461015b5780634c46b3861461017d57806354486ed1146101ab57600080fd5b3661011457005b600080fd5b34801561012557600080fd5b50610139610134366004611afc565b610435565b6040516101529d9c9b9a99989796959493929190611b95565b60405180910390f35b34801561016757600080fd5b5061017b610176366004611c33565b6105b8565b005b34801561018957600080fd5b5061019d610198366004611d3b565b610721565b604051908152602001610152565b61017b6101b9366004611afc565b610a8c565b3480156101ca57600080fd5b5061017b610cd4565b3480156101df57600080fd5b5061017b6101ee366004611c33565b610ce8565b3480156101ff57600080fd5b506000546001600160a01b03165b6040516001600160a01b039091168152602001610152565b34801561023157600080fd5b5061019d62093a8081565b34801561024857600080fd5b5060025461019d565b34801561025d57600080fd5b5061027161026c366004611e6d565b610ea7565b604051610152919081516001600160a01b031681526020808301519082015260408083015115159082015260609182015115159181019190915260800190565b3480156102bd57600080fd5b506102d16102cc366004611afc565b610f29565b6040516101529190611ef1565b3480156102ea57600080fd5b5061020d6102f9366004612013565b611230565b34801561030a57600080fd5b5061031e610319366004611afc565b611268565b6040516101529190612035565b34801561033757600080fd5b5061019d662386f26fc1000081565b34801561035257600080fd5b5061017b610361366004611afc565b6112d4565b34801561037257600080fd5b506103c3610381366004611e6d565b60046020908152600092835260408084209091529082529020805460018201546002909201546001600160a01b03909116919060ff8082169161010090041684565b604080516001600160a01b03909516855260208501939093529015159183019190915215156060820152608001610152565b34801561040157600080fd5b5061017b610410366004612082565b6114f0565b34801561042157600080fd5b5061017b610430366004611afc565b61152e565b60036020526000908152604090208054600182018054919291610457906120a4565b80601f0160208091040260200160405190810160405280929190818152602001828054610483906120a4565b80156104d05780601f106104a5576101008083540402835291602001916104d0565b820191906000526020600020905b8154815290600101906020018083116104b357829003601f168201915b5050505050908060020180546104e5906120a4565b80601f0160208091040260200160405190810160405280929190818152602001828054610511906120a4565b801561055e5780601f106105335761010080835404028352916020019161055e565b820191906000526020600020905b81548152906001019060200180831161054157829003601f168201915b50505050600383015460048401546005850154600686015460078701546009880154600a890154600b9099015497986001600160a01b038088169960ff600160a01b998a900481169a50918816989097048116969216918d565b6000828152600360208190526040909120015482906001600160a01b031633146106205760405162461bcd60e51b81526020600482015260146024820152732737ba10383937b837b9b0b61031b932b0ba37b960611b60448201526064015b60405180910390fd5b6001600084815260036020819052604090912060040154600160a01b900460ff169081111561065157610651611b5b565b1461066e5760405162461bcd60e51b8152600401610617906120de565b60008381526003602052604090206009015460ff16156106c05760405162461bcd60e51b815260206004820152600d60248201526c105b1c9958591e481d9bdd1959609a1b6044820152606401610617565b60008381526003602052604090819020600901805460ff1916600117905551339084907fe71fcdac32df1877c1700e7bda2a03157e20993363a28fc35ac495cefc76e4d49061071490861515815260200190565b60405180910390a3505050565b6000808651116107635760405162461bcd60e51b815260206004820152600d60248201526c13985b59481c995c5d5a5c9959609a1b6044820152606401610617565b60008551116107a75760405162461bcd60e51b815260206004820152601060248201526f10dbdb9d195b9d081c995c5d5a5c995960821b6044820152606401610617565b60008251116107f05760405162461bcd60e51b815260206004820152601560248201527411195b1a5d995c98589b195cc81c995c5d5a5c9959605a1b6044820152606401610617565b600284600281111561080457610804611b5b565b03610857576001600160a01b0383166108575760405162461bcd60e51b8152602060048201526015602482015274109d5c9b881859191c995cdcc81c995c5d5a5c9959605a1b6044820152606401610617565b6002805490600061086783612121565b919050555060006002549050604051806101c00160405280828152602001888152602001878152602001336001600160a01b031681526020018660028111156108b2576108b2611b5b565b81526001600160a01b038616602082015260400160008152602001600081526020014281526020014281526020018481526020016000151581526020016000815260200160008152506003600083815260200190815260200160002060008201518160000155602082015181600101908161092d9190612188565b50604082015160028201906109429082612188565b5060608201516003820180546001600160a01b039092166001600160a01b03198316811782556080850151926001600160a81b03191617600160a01b83600281111561099057610990611b5b565b021790555060a08201516004820180546001600160a01b039092166001600160a01b031983168117825560c0850151926001600160a81b03191617600160a01b8360038111156109e2576109e2611b5b565b021790555060e08201516005820155610100820151600682015561012082015160078201556101408201518051610a239160088401916020909101906119b1565b5061016082015160098201805460ff1916911515919091179055610180820151600a8201556101a090910151600b90910155604051339082907fcd423cc1203c0af96b9b3d68d73b3064a69de2d14450bb7181c5e5df2132b35890600090a39695505050505050565b80600081118015610a9f57506002548111155b610ade5760405162461bcd60e51b815260206004820152601060248201526f125b9d985b1a59081c1c9bdc1bdcd85b60821b6044820152606401610617565b610ae6611666565b6000828152600360208190526040822060040154600160a01b900460ff1690811115610b1457610b14611b5b565b14610b575760405162461bcd60e51b815260206004820152601360248201527250726f706f73616c206e6f742061637469766560681b6044820152606401610617565b662386f26fc10000341015610ba35760405162461bcd60e51b8152602060048201526012602482015271111bdb985d1a5bdb881d1bdbc81cdb585b1b60721b6044820152606401610617565b60008281526004602090815260408083203384529091528120600101549003610bf55760008281526005602090815260408220805460018101825590835291200180546001600160a01b031916331790555b600082815260046020908152604080832033845290915281206001018054349290610c21908490612248565b909155505060008281526004602090815260408083203380855290835281842080546001600160a01b0319169091179055848352600390915281206005018054349290610c6f908490612248565b9091555050600082815260036020526040908190204260079091015551339083907fe555da28bdb778f65d22794d88927ebaeca03f7de9d1b7d39245bc8fb5ca078a90610cbf9034815260200190565b60405180910390a3610cd060018055565b5050565b610cdc611690565b610ce660006116bd565b565b60008281526004602090815260408083203384529091529020600101548290610d415760405162461bcd60e51b815260206004820152600b60248201526a2737ba1030903237b737b960a91b6044820152606401610617565b6001600084815260036020819052604090912060040154600160a01b900460ff1690811115610d7257610d72611b5b565b14610d8f5760405162461bcd60e51b8152600401610617906120de565b600083815260046020908152604080832033845290915290206002015460ff1615610dec5760405162461bcd60e51b815260206004820152600d60248201526c105b1c9958591e481d9bdd1959609a1b6044820152606401610617565b600083815260046020908152604080832033845290915290206002018054831580156101000261ffff1990921691909117600117909155610e4e576000838152600360205260408120600a01805491610e4483612121565b9190505550610e71565b6000838152600360205260408120600b01805491610e6b83612121565b91905055505b6040518215158152339084907fe71fcdac32df1877c1700e7bda2a03157e20993363a28fc35ac495cefc76e4d490602001610714565b6040805160808082018352600080835260208084018290528385018290526060938401829052868252600481528482206001600160a01b0387811684529082529185902085519384018652805490921683526001820154908301526002015460ff80821615159483019490945261010090049092161515908201525b92915050565b610f31611a07565b60036000838152602001908152602001600020604051806101c001604052908160008201548152602001600182018054610f6a906120a4565b80601f0160208091040260200160405190810160405280929190818152602001828054610f96906120a4565b8015610fe35780601f10610fb857610100808354040283529160200191610fe3565b820191906000526020600020905b815481529060010190602001808311610fc657829003601f168201915b50505050508152602001600282018054610ffc906120a4565b80601f0160208091040260200160405190810160405280929190818152602001828054611028906120a4565b80156110755780601f1061104a57610100808354040283529160200191611075565b820191906000526020600020905b81548152906001019060200180831161105857829003601f168201915b505050918352505060038201546001600160a01b0381166020830152604090910190600160a01b900460ff1660028111156110b2576110b2611b5b565b60028111156110c3576110c3611b5b565b815260048201546001600160a01b0381166020830152604090910190600160a01b900460ff1660038111156110fa576110fa611b5b565b600381111561110b5761110b611b5b565b815260200160058201548152602001600682015481526020016007820154815260200160088201805480602002602001604051908101604052809291908181526020016000905b828210156111fe578382906000526020600020018054611171906120a4565b80601f016020809104026020016040519081016040528092919081815260200182805461119d906120a4565b80156111ea5780601f106111bf576101008083540402835291602001916111ea565b820191906000526020600020905b8154815290600101906020018083116111cd57829003601f168201915b505050505081526020019060010190611152565b50505090825250600982015460ff1615156020820152600a8201546040820152600b9091015460609091015292915050565b6005602052816000526040600020818154811061124c57600080fd5b6000918252602090912001546001600160a01b03169150829050565b6000818152600560209081526040918290208054835181840281018401909452808452606093928301828280156112c857602002820191906000526020600020905b81546001600160a01b031681526001909101906020018083116112aa575b50505050509050919050565b6112dc611690565b806000811180156112ef57506002548111155b61132e5760405162461bcd60e51b815260206004820152601060248201526f125b9d985b1a59081c1c9bdc1bdcd85b60821b6044820152606401610617565b600082815260036020526040902060016004820154600160a01b900460ff16600381111561135e5761135e611b5b565b1461137b5760405162461bcd60e51b8152600401610617906120de565b600081600b015482600a01546113919190612248565b9050600081116113d35760405162461bcd60e51b815260206004820152600d60248201526c139bc81d9bdd195cc818d85cdd609a1b6044820152606401610617565b60008183600a015460646113e7919061225b565b6113f19190612272565b9050603381106114e05760058301805460009182905560048501805460ff60a01b1916600160a11b17905560038501546040519192916001600160a01b039091169083908381818185875af1925050503d806000811461146d576040519150601f19603f3d011682016040523d82523d6000602084013e611472565b606091505b50509050806114935760405162461bcd60e51b815260040161061790612294565b60038501546040518381526001600160a01b039091169088907f9f5926601e7fc353505f05fae61282ae5d67b716f95656849456e6aa7bbbbb5f9060200160405180910390a350506114e9565b6114e98561170d565b5050505050565b6114f8611690565b6001600160a01b03811661152257604051631e4fbdf760e01b815260006004820152602401610617565b61152b816116bd565b50565b6000818152600360208190526040909120015481906001600160a01b031633146115915760405162461bcd60e51b81526020600482015260146024820152732737ba10383937b837b9b0b61031b932b0ba37b960611b6044820152606401610617565b6000828152600360208190526040822060040154600160a01b900460ff16908111156115bf576115bf611b5b565b146115fd5760405162461bcd60e51b815260206004820152600e60248201526d496e76616c69642073746174757360901b6044820152606401610617565b6000828152600360205260409081902060048101805460ff60a01b1916600160a01b179055426007909101555182907f3346abf262ac5179e9052765fb72484e0baab1f356f08442bb7a3054147631de9061165a906001906122bd565b60405180910390a25050565b60026001540361168957604051633ee5aeb560e01b815260040160405180910390fd5b6002600155565b6000546001600160a01b03163314610ce65760405163118cdaa760e01b8152336004820152602401610617565b600080546001600160a01b038381166001600160a01b0319831681178455604051919092169283917f8be0079c531659141344cd1fd0a4f28419497f9722a3daafe3b4186f6b6457e09190a35050565b600081815260036020819052604082206005810180549390556004810180549193929160ff60a01b1916600160a01b83021790555060016003830154600160a01b900460ff16600281111561176457611764611b5b565b036118c85760005b6000848152600560205260409020548110156118c25760008481526005602052604081208054839081106117a2576117a26122cb565b60009182526020808320909101548783526004825260408084206001600160a01b039092168085529190925291206001015490915080156118ad5760008681526004602090815260408083206001600160a01b03861680855292528083206001018390555183908381818185875af1925050503d8060008114611841576040519150601f19603f3d011682016040523d82523d6000602084013e611846565b606091505b50509050806118675760405162461bcd60e51b815260040161061790612294565b826001600160a01b0316877f9f5926601e7fc353505f05fae61282ae5d67b716f95656849456e6aa7bbbbb5f846040516118a391815260200190565b60405180910390a3505b505080806118ba90612121565b91505061176c565b50505050565b60026003830154600160a01b900460ff1660028111156118ea576118ea611b5b565b036119ac5760048201546040516000916001600160a01b03169083908381818185875af1925050503d806000811461193e576040519150601f19603f3d011682016040523d82523d6000602084013e611943565b606091505b50509050806119645760405162461bcd60e51b815260040161061790612294565b60048301546040518381526001600160a01b039091169085907f9f5926601e7fc353505f05fae61282ae5d67b716f95656849456e6aa7bbbbb5f9060200160405180910390a3505b505050565b8280548282559060005260206000209081019282156119f7579160200282015b828111156119f757825182906119e79082612188565b50916020019190600101906119d1565b50611a03929150611a95565b5090565b604051806101c0016040528060008152602001606081526020016060815260200160006001600160a01b0316815260200160006002811115611a4b57611a4b611b5b565b815260006020820181905260409091019081526020016000815260200160008152602001600081526020016060815260200160001515815260200160008152602001600081525090565b80821115611a03576000611aa98282611ab2565b50600101611a95565b508054611abe906120a4565b6000825580601f10611ace575050565b601f01602090049060005260206000209081019061152b91905b80821115611a035760008155600101611ae8565b600060208284031215611b0e57600080fd5b5035919050565b6000815180845260005b81811015611b3b57602081850181015186830182015201611b1f565b506000602082860101526020601f19601f83011685010191505092915050565b634e487b7160e01b600052602160045260246000fd5b60038110611b8157611b81611b5b565b9052565b60048110611b8157611b81611b5b565b8d81526101a060208201526000611bb06101a083018f611b15565b8281036040840152611bc2818f611b15565b6001600160a01b038e811660608601529092509050611be4608084018d611b71565b8a1660a0830152611bf860c083018a611b85565b60e082019790975261010081019590955261012085019390935290151561014084015261016083015261018090910152979650505050505050565b60008060408385031215611c4657600080fd5b8235915060208301358015158114611c5d57600080fd5b809150509250929050565b634e487b7160e01b600052604160045260246000fd5b604051601f8201601f1916810167ffffffffffffffff81118282101715611ca757611ca7611c68565b604052919050565b600082601f830112611cc057600080fd5b813567ffffffffffffffff811115611cda57611cda611c68565b611ced601f8201601f1916602001611c7e565b818152846020838601011115611d0257600080fd5b816020850160208301376000918101602001919091529392505050565b80356001600160a01b0381168114611d3657600080fd5b919050565b600080600080600060a08688031215611d5357600080fd5b853567ffffffffffffffff80821115611d6b57600080fd5b611d7789838a01611caf565b9650602091508188013581811115611d8e57600080fd5b611d9a8a828b01611caf565b965050604088013560038110611daf57600080fd5b9450611dbd60608901611d1f565b9350608088013581811115611dd157600080fd5b8801601f81018a13611de257600080fd5b803582811115611df457611df4611c68565b8060051b611e03858201611c7e565b918252828101850191858101908d841115611e1d57600080fd5b86850192505b83831015611e5957823586811115611e3b5760008081fd5b611e498f8983890101611caf565b8352509186019190860190611e23565b809750505050505050509295509295909350565b60008060408385031215611e8057600080fd5b82359150611e9060208401611d1f565b90509250929050565b600082825180855260208086019550808260051b84010181860160005b84811015611ee457601f19868403018952611ed2838351611b15565b98840198925090830190600101611eb6565b5090979650505050505050565b6020815281516020820152600060208301516101c0806040850152611f1a6101e0850183611b15565b91506040850151601f1980868503016060870152611f388483611b15565b935060608701519150611f5660808701836001600160a01b03169052565b60808701519150611f6a60a0870183611b71565b60a08701516001600160a01b03811660c0880152915060c08701519150611f9460e0870183611b85565b60e0870151610100878101919091528701516101208088019190915287015161014080880191909152870151868503820161016080890191909152909250611fdc8584611e99565b94508088015192505050610180611ff68187018315159052565b8601516101a0868101919091529095015193019290925250919050565b6000806040838503121561202657600080fd5b50508035926020909101359150565b6020808252825182820181905260009190848201906040850190845b818110156120765783516001600160a01b031683529284019291840191600101612051565b50909695505050505050565b60006020828403121561209457600080fd5b61209d82611d1f565b9392505050565b600181811c908216806120b857607f821691505b6020821081036120d857634e487b7160e01b600052602260045260246000fd5b50919050565b6020808252601390820152724e6f7420696e20766f74696e6720706861736560681b604082015260600190565b634e487b7160e01b600052601160045260246000fd5b6000600182016121335761213361210b565b5060010190565b601f8211156119ac57600081815260208120601f850160051c810160208610156121615750805b601f850160051c820191505b818110156121805782815560010161216d565b505050505050565b815167ffffffffffffffff8111156121a2576121a2611c68565b6121b6816121b084546120a4565b8461213a565b602080601f8311600181146121eb57600084156121d35750858301515b600019600386901b1c1916600185901b178555612180565b600085815260208120601f198616915b8281101561221a578886015182559484019460019091019084016121fb565b50858210156122385787850151600019600388901b60f8161c191681555b5050505050600190811b01905550565b80820180821115610f2357610f2361210b565b8082028115828204841417610f2357610f2361210b565b60008261228f57634e487b7160e01b600052601260045260246000fd5b500490565b6020808252600f908201526e151c985b9cd9995c8819985a5b1959608a1b604082015260600190565b60208101610f238284611b85565b634e487b7160e01b600052603260045260246000fdfea264697066735822122004063c55d02b492c8e07dfd7634529af61e204e981d4491f6574ab8011f6f84064736f6c63430008140033",
  "linkReferences": {},
  "deployedLinkReferences": {}
}